:020000040000fa
:080000000002040000000000f2
:020000040000fa
:100008009a0200009a0200009a0200009a02000078
:100018009a0200009a0200009a0200009a02000068
:100028009a0200009a0200009a0200009a02000058
:100038009a0200009a0200009a020000840b000055
:100048009a0200009a0200009a0200009a02000038
:100058009a0200009a0200009a0200009a02000028
:100068009a0200009a0200009a0200009a02000018
:100078009a0200009a0200009a0200009a02000008
:100088009a0200009a0200009a0200009a020000f8
:100098009a0200009a020000be0b0000f60b000056
:1000a8009a0200009a0200009a0200009a020000d8
:1000b8009a0200009a0200009a0200009a020000c8
:1000c8009a0200009a0200009a0200009a020000b8
:1000d8009a0200009a0200009a0200009a020000a8
:1000e8009a0200009a0200009a0200009a02000098
:1000f8009a0200009a0200009a0200009a02000088
:100108009a0200009a0200009a0200009a02000077
:100118009a0200009a0200009a0200009a02000067
:100128009a0200009a0200009a0200009a02000057
:100138009a0200009a0200009a0200009a02000047
:100148009a0200009a0200009a0200009a02000037
:100158009a0200009a0200009a0200009a02000027
:100168009a0200009a0200009a0200009a02000017
:100178009a0200009a0200009a0200009a02000007
:100188009a0200009a0200009a0200009a020000f7
:100198009a0200009a0200009a0200009a020000e7
:1001a8009a0200009a0200009a0200009a020000d7
:1001b8009a0200009a0200009a0200009a020000c7
:1001c8009a0200009a0200009a0200009a020000b7
:1001d8009a0200009a0200009a0200009a020000a7
:1001e8009a0200009a0200009a0200009a02000097
:0801f8009a0200009a020000c7
:020000040000fa
:100208009a0200009a0200009a0200009a02000076
:100218009a0200009a0200009a0200009a02000066
:100228009a0200009a0200009a0200009a02000056
:100238009a0200009a0200009a020000840b000053
:100248009a0200009a0200009a0200009a02000036
:100258009a0200009a0200009a0200009a02000026
:100268009a0200009a0200009a0200009a02000016
:100278009a0200009a0200009a0200009a02000006
:100288009a0200009a0200009a0200009a020000f6
:100298009a0200009a020000be0b0000f60b000054
:1002a8009a0200009a0200009a0200009a020000d6
:1002b8009a0200009a0200009a0200009a020000c6
:1002c8009a0200009a0200009a0200009a020000b6
:1002d8009a0200009a0200009a0200009a020000a6
:1002e8009a0200009a0200009a0200009a02000096
:1002f8009a0200009a0200009a0200009a02000086
:100308009a0200009a0200009a0200009a02000075
:100318009a0200009a0200009a0200009a02000065
:100328009a0200009a0200009a0200009a02000055
:100338009a0200009a0200009a0200009a02000045
:100348009a0200009a0200009a0200009a02000035
:100358009a0200009a0200009a0200009a02000025
:100368009a0200009a0200009a0200009a02000015
:100378009a0200009a0200009a0200009a02000005
:100388009a0200009a0200009a0200009a020000f5
:100398009a0200009a0200009a0200009a020000e5
:1003a8009a0200009a0200009a0200009a020000d5
:1003b8009a0200009a0200009a0200009a020000c5
:1003c8009a0200009a0200009a0200009a020000b5
:1003d8009a0200009a0200009a0200009a020000a5
:1003e8009a0200009a0200009a0200009a02000095
:0803f8009a0200009a020000c5
:020000040000fa
:100400008f8120000e7f24000e0188000000000074
:10041000000020000000e000020032000001200087
:10042000200288000c00070080c42000010020008a
:1004300011000700000020000000e0000200320070
:100440000000020000000000020c0200000000009a
:100450000040da000000fe004440a9000000200037
:100460000000e0000300320000002000a00188002e
:100470004440a80000000600910188008000780038
:100480000000eb0015003700e280400032a0b4000d
:100490009101ba00e280400032a0b4009102ba009b
:1004a000e280400032a0b4000002eb00472bde00e7
:1004b000f507b200602ce10004003a000059eb009f
:1004c0008301e900fdff3e00040037006128e100e0
:1004d000010032000082eb00040007001101ba00a5
:1004e0000200e000e8ff3a00000006003159ba00bf
:1004f0008301e9000c0032002159ba008301e900b0
:10050000080032000400e00003003a00e2804000ee
:1005100032a0b400f5ff370011d9ba008301e90019
:10052000faff3a008100e800e180400032a0b40008
:10053000000006000040da000000fe0084e0a90090
:10054000e7026000cc2add00f4ff280036058000b9
:10055000060262000502720034058800680060002f
:100560004300de00610060004700dd00f4f72f006b
:10057000a50480000502620000027200a404880045
:10058000000006000002eb003408880054088800d0
:100590006208880073088800800888001061a8003d
:1005a00000000600001020003202b6000000e90042
:1005b0004f00de000000060087c0a90087e0a90008
:1005c000e7026000c82add00f48f2f009605800046
:1005d000060262000502720094058800800278001d
:1005e0000507b200c82add00f4ff28009605800048
:1005f000060262000502720094058800e8026000ad
:10060000c32ade00e1826200ce2add00f4ff2b0067
:10061000b60480000602620005027200b40488007d
:100620000008b2004700de00610060004f00dd00fe
:10063000f4ff2700b504800005026200000272008a
:10064000b404880000000600901180006140600042
:1006500000000600c21188008011880091118800f6
:10066000000006008411800066026200e60f52005e
:1006700002003a00b011800000000600b0118000b6
:10068000f00fb200000006008411800066026200d4
:10069000e60f520001003200f00fb200a0118800f6
:0406a0000000060050
:020000040000fa
:1006a4000200fa00000f78001e027800e10f5200e9
:1006b40007003a002401200084408800d400200070
:1006c4009440880014012000a440880009003700e9
:1006d4001e027800e20f520006003a0024012000b6
:1006e40084408800a4022000944088002400200054
:1006f400a44088000080fa00000006000200fa000e
:10070400000f78001e007800e5ff07008440800099
:1007140004427800a228200021c2b30004407800db
:10072400b303070000a0260081012000490407004c
:100734009440800004427800a228200021c2b30023
:1007440004407800aa03070000a0260081012000cd
:1007540040040700a440800004427800a22820003e
:1007640021c2b30004407800a103070000a02600c2
:10077400810120003704070084408000044278008f
:10078400a228200001c2b3000440780098030700a7
:1007940000a02600810120002e0407009440800060
:1007a40004427800a228200001c2b300044078006b
:1007b4008f03070000a02600810120002504070004
:1007c400a440800004427800a228200001c2b300a3
:1007d400044078008603070000a026008101200061
:1007e4001c0407008440800004427800022020009a
:1007f400e1c1b300044078007d03070000902000ad
:10080400d1032000130407009440800004427800c0
:10081400d20c2000e1c1b300044078007403070047
:1008240000902000d10320000a040700a4408000a7
:1008340004427800d20c2000e1c1b30004407800e7
:100844006b03070000d022001113200001040700ed
:100854000080fa00000006000200fa00000f780091
:100864001e0078008eff0700844080000442780058
:10087400a228200021c2b300044078005c030700d2
:1008840000482800e1012000f203070094408000a2
:1008940004427800a228200021c2b300044078005a
:1008a4005303070000482800e1012000e903070082
:1008b400a440800004427800a228200021c2b30092
:1008c400044078004a03070000482800e1012000a2
:1008d400e00307008440800004427800a22820003e
:1008e40001c2b30004407800410307000048280017
:1008f400e1012000d70307009440800004427800ff
:10090400a228200001c2b300044078003803070085
:1009140000482800e1012000ce030700a440800025
:1009240004427800a228200001c2b30004407800e9
:100934002f03070000482800e1012000c503070039
:10094400a44080000442780002202000e1c1b300ea
:10095400044078002603070000d022001113200071
:10096400bc0307009440800004427800c2172000b2
:10097400e1c1b300044078001d030700009020008b
:10098400d1032000b30307008440800004427800b0
:10099400a2292000e1c1b300044078001403070039
:1009a40000902000d1032000aa030700a440800087
:1009b40004427800220d2000e1c1b3000440780015
:1009c4000b03070000b02100710b2000a1030700f6
:1009d400a440800004427800421a200021c2b300df
:1009e400044078000203070000a0260081012000d3
:1009f40098030700a440800004427800420b2000c2
:100a0400e1c1b30004407800f9020700004022006d
:100a1400410f20008f0307001e007800020007002a
:100a24000080fa00000006000200fa00000f7800bf
:100a34001e0078001aff0700a440800004427800da
:100a4400421a200021c2b30004407800e8020700e3
:100a540000482800e10120007e0307008440800054
:100a640004427800a228200021c2b3000440780088
:100a7400df02070000482800e10120007503070099
:100a84009440800004427800a228200021c2b300d0
:100a940004407800d602070000482800e101200045
:100aa4006c0307008440800004427800a2282000e0
:100ab40001c2b30004407800cd02070000482800ba
:100ac400e1012000630307009440800004427800a1
:100ad400a228200001c2b30004407800c402070029
:100ae40000482800e10120005a030700a4408000c8
:100af40004427800a228200001c2b3000440780018
:100b0400bb02070000482800e10120005103070050
:100b1400844080000442780002202000e1c1b30038
:100b240004407800b202070000902000d1032000a6
:100b3400480307009440800004427800c212200059
:100b4400e1c1b30004407800a9020700009020002e
:100b5400d10320003f030700a44080000442780032
:100b6400420b2000e1c1b30004407800a00207005a
:100b740000a0250021262000360307000080fa008b
:100b8400000006000200fa00000f78001e00780042
:100b9400c3fe0700a440800004427800421a2000eb
:100ba40021c2b300044078009102070000482800e5
:100bb400e1012000270307008440800004427800fc
:100bc400a228200021c2b300044078008802070054
:100bd40000482800e10120001e0307009440800023
:100be40004427800a228200021c2b3000440780007
:100bf4007f02070000482800e101200015030700d8
:100c04008440800004427800a228200001c2b3007e
:100c1400044078007602070000482800e101200023
:100c24000c0307009440800004427800a2282000ae
:100c340001c2b300044078006d0207000048280098
:100c4400e101200003030700a4408000044278006f
:100c5400a228200001c2b300044078006402070007
:100c640000482800e1012000fa02070094408000b7
:100c740004427800c22b2000e1c1b3000440780094
:100c84005b02070000402200410f2000f102070030
:100c94008440800004427800822f2000e1c1b30028
:100ca400044078005202070000f02300b11a20002b
:100cb400e8020700a44080000442780002202000db
:100cc400e1c1b300044078004902070000a82100f4
:100cd40061002000df020700a44080000442780085
:100ce400a228200021c2b30004407800400207007b
:100cf40000502300c1002000d60207009440800069
:100d040004427800c2172000e1c1b3000440780017
:100d14003702070000a8210061002000cd0207006f
:100d24008440800004427800a2292000e1c1b3007d
:100d3400044078002e02070000402200410f2000ea
:100d4400c40207001e0078006cfe07000080fa0051
:100d5400000006000200fa00000f78001e00780070
:100d64004ffe0700a440800004427800421a20008d
:100d740021c2b300044078001d0207000048280087
:100d8400e1012000b302070084408000044278009f
:100d9400a228200021c2b3000440780014020700f6
:100da40000482800e1012000aa02070094408000c6
:100db40004427800a228200021c2b3000440780035
:100dc4000b02070000482800e1012000a1020700ef
:100dd4008440800004427800a228200001c2b300ad
:100de400044078000202070000482800e1012000c6
:100df400980207009440800004427800a228200052
:100e040001c2b30004407800f9010700004828003b
:100e1400e10120008f020700a44080000442780012
:100e2400a228200001c2b30004407800f0010700aa
:100e340000482800e1012000860207009440800059
:100e44000442780002192000e1c1b3000440780094
:100e5400e701070000b02100710b20007d020700ac
:100e6400844080000442780002282000e1c1b300dd
:100e740004407800de01070000d022001113200096
:100e840074020700a440800004427800022020007d
:100e9400e1c1b30004407800d501070000602300dd
:100ea400e11620006b0207009440800004427800a1
:100eb400822f2000e1c1b30004407800cc01070078
:100ec40000302700510520006202070084408000a2
:100ed4000442780042332000e1c1b30004407800aa
:100ee400c301070000202100a107200059020700c8
:100ef4001e00780001fe07000080fa0000000600d2
:100f04000200fa00000f7800a228200021c2b300da
:100f140020c1b300b601070000a026008101200013
:100f24004c020700a228200001c2b30020c1b30074
:100f3400af01070000a02600810120004502070040
:100f440002202000e1c1b30020c1b300a8010700c2
:100f540000482800e10120003e020700a2142000fe
:100f6400e1c1b30020c1b300a101070000d02200f9
:100f7400111320003702070002202000e1c1b30052
:100f840020c1b3009a01070000482800e1012000b5
:100f9400300207000080fa00000006000000fa009a
:100fa400153a8000f40b20000483620064042000de
:100fb4007505200027742000844b7800854b780049
:100fc400864b780034358000f401b3003435880052
:100fd40025368000f40f2e00848262000450200025
:100fe4000502720024368800153a800004042000ab
:100ff40004037800050373006404200075052000d1
:1010040027742000844b7800854b7800864b780049
:101014000080fa00000006000000fa00153a800083
:10102400f40b200004836200640420007505200092
:1010340027742000844b7800854b7800864b780019
:1010440025368000f40f2e000482620024368800c6
:101054003535800004fe2f00048262005400b30082
:1010640034358800153a8000040420000403780015
:101074000503730064042000750520002774200014
:10108400844b7800854b7800864b78000080fa000a
:10109400000006000200fa00004f78000000000083
:1010a400951180000420200004826200e00f5200a9
:1010b400fbff3a009e4278000582fb0004007800a2
:1010c40070fd070004802000144278001e42420094
:1010d4000400780000e8b7000080fa000000060071
:1010e4000400fa00004f7800114798002247980046
:1010f400aaff070000c0eb00e6ff070000c0eb00fa
:10110400e4ff07000042eb000400780000e8b700a9
:101114001e407800dfff07001e42900004c2e80072
:1011240004407800dbff07002e409000d9ff070041
:101134000080fa00000006000600fa00204798002c
:10114400210798000042eb00044f780008003700a4
:101154009e4278000582fb00ae02900004824200a9
:101164001442780004407800caff07001e4fe800cc
:101174002e4290009e42780084cf5200f4ff390042
:101184000080fa00000006000000fa00048020003d
:101194001442780004c2ea0004407800bdff07004e
:1011a40000000000fefc070000427800e04f5200ff
:1011b400fcff3a0098ff07000080fa0000000600d8
:1011c4000200fa007000370025fd070000027800d5
:1011d40004427800044f7800b4408000e50f4200d8
:1011e40006003a001e427800e14f420003003a0034
:1011f400c4ff2f00b440880063003700b44080006f
:10120400e40f42000d003a001e427800e14f420014
:101214000a003a00d4ff2f00b44088000042eb00db
:101224000002fd0000e8b7000002fd004580200038
:1012340014c0b3009442980053003700b4408000b7
:10124400e30f420006003a00e4ff2f00b440880098
:101254001e42780045802000844a78004a00370006
:10126400b4408000e20f420011003a001e427800b0
:10127400e54f52000e003e000082eb00b4408800af
:1012840044802000944278001e42780004c2420048
:101294000002fd0000e8b7000002fd001e427800d5
:1012a40004c2e900458020009442980036003700cb
:1012b400b4408000e10f420007003a000002eb0056
:1012c400b44088008e027800448020001503780022
:1012d400160298002c003700b4408000e00f520042
:1012e4001600350044802000144290008482fb00e4
:1012f400b4408000848f520010003400b540800058
:101304000503780084802000040343001e42780013
:10131400044b78000502e800b440880005802000f2
:10132400954278001e42780004c242000002fd008b
:1013340000e8b7000002fd001300370044802000dd
:10134400144290008482fb00b4408000848f5200d9
:101354000b003a009e42780004802000144278007a
:1013640004c26200e04f520005003a00140020005d
:1013740014408800b4ff2f00b440880002003700f6
:10138400b4ff2f00b4408800aefc07000042780090
:10139400e04f52008cff3a000080fa000000060083
:1013a4000200fa00004f780012c0b30021c0b3005d
:1013b4001e4078004aff070073ff07000080fa0010
:1013c400000006000400fa00004f7800114798005e
:1013d4002247980022c0b30021c0b3001e40780009
:1013e4003fff07001e4090002aff07002e40900098
:1013f40028ff070064ff07000080fa0000000600d1
:101404000600fa00004f7800114798002247980020
:10141400230798002e4290000442e80032c0b30033
:10142400844078001e4078002dff07001e40900085
:1014340018ff0700ae0090002e4090003eff07000a
:1014440051ff07000080fa00000006000600fa00c1
:10145400004f78001147980022479800230798000e
:101464002e4290000442e80042c0b3008440780059
:101474001e4078001aff07001e40900005ff070079
:10148400ae0090002e4090002bff07003eff0700a7
:101494000080fa00000006000200fa00004f780005
:1014a40052c0b3008040eb001e4078000cff0700e0
:1014b40035ff07000080fa00000006000200fa0071
:1014c400004f780062c0b3008040eb001e407800fb
:1014d40003ff07002cff07000080fa00000006004d
:1014e4000200fa00004f78009e4278000582fb005b
:1014f400cfa2de000603200007002000860f520062
:10150400878f5a0036003e00046001003200370025
:10151400330037002e0037002d0037002c00370031
:101524002b0037002c0037002d0037002a0037002d
:101534002b0037002a00370025003700240037002d
:10154400230037002400370025003700200037002f
:101554001f0037001e0037001d0037001e00370033
:101564001f0037001c0037001d003700180037002b
:101574001700370016003700150037001400370035
:10158400130037001400370015003700120037002d
:101594001300370010003700110037000e00370029
:1015a4000f0037000c0037000d0037000a00370029
:1015b4000b00370006003700050037000400370031
:1015c400070037000200370001003700020037002f
:1015d40014c0b3000300370024c0b3000100370077
:1015e4000042eb00044078000080fa00000006008e
:1015f4000400fa00881f7800004f78001147980013
:10160400120798000002eb00144088000e84e800e2
:101614001e409000b2ff0700004278008801780065
:10162400044178009e4090001e40780074ff07003b
:101634004f0478000080fa00000006000200fa005f
:10164400004f7800114798000002eb001440880016
:101654001e409000a2ff0700004278000441780079
:101664009e4090001e40780056ff07000080fa005c
:10167400000006000000fa00353a800004e02f0064
:10168400848262006409200005027200343a8800f2
:10169400243a80000460a1000470a100243a880068
:1016a400253a800004fe2f00048262005400b30037
:1016b400243a88000080fa00000006000000fa00c6
:1016c400c042a900cea2a80081e0a900a202200085
:1016d400d155290000402c00ddfb0700c0f42f0089
:1016e400b4fb07001200200003002000d0f82d00f6
:1016f400a3fb0700c0ff2f008ffb07000080fa0048
:1017040000000600801f7800849fbe00861f7800ba
:101714003400f80000002000a00188000000fa0056
:10172400241680006402620004f0a7000402ea00a8
:101734000402e9004f22de00044278000482fb0028
:10174400610262004222dd0026168000b5ff2f00f0
:1017540085026300050272002416880084e0a90053
:101764000080fa003400f9004f0378004f02be00f5
:101774004f007800004006003600f800809fbe004d
:10178400829fbe00849fbe00869fbe000000fa00b8
:10179400241680004222de00614262000404a2009a
:1017a400614262000482fb00610262004222dd00a9
:1017b40026168000b5ff2f00850263000502720023
:1017c400241688007efe070087c0a9000080fa0066
:1017d4004f03be004f02be004f01be004f00be00cb
:1017e4003600f90000400600801f78000000fa006f
:1017f40087e0a9000080fa004f007800004006004e
:101804000000fa009bff0700acff07000002eb009a
:10181400144088000001eb0061c0b300f0c0b300c5
:1018240073ff07000001eb0081c0b300f0c0b300f8
:101834006fff0700f27f200001c2b300f0c0b300c5
:101844006bff070000a025002126200001000700ef
:04185400f8ff370062
:020000040000fa
:10185800f03fb1000180b10006003500ee03090039
:1018680000000000403fb1000180b100fbff3d00d7
:101878001000b000203fb0000200350000800900d1
:08188800000000000000060052
:020000040000fa
:101890001008000006000000000000000008000022
:1018a0001000000000000000160800000200000008
:0c18b00002000000fbff00000000000030
:020000040000fa
:0200000401f009
:04000c0079ff000078
:020000040000fa
:0200000401f009
:040010009bff000052
:020000040000fa
:0200000401f009
:040014007fff00006a
:020000040000fa
:0200000401f009
:04001c00dfff000002
:00000001FF
