:020000040000fa
:080000000002040000000000f2
:020000040000fa
:100008009a0200009a0200009a0200009a02000078
:100018009a0200009a0200009a0200009a02000068
:100028009a0200009a0200009a0200009a02000058
:100038009a0200009a0200009a02000006070000d7
:100048009a0200009a0200009a0200009a02000038
:100058009a0200009a0200009a0200009a02000028
:100068009a0200009a0200009a0200009a02000018
:100078009a0200009a0200009a0200009a02000008
:100088009a0200009a0200009a0200009a020000f8
:100098009a0200009a02000040070000780700005a
:1000a8009a0200009a0200009a0200009a020000d8
:1000b8009a0200009a0200009a0200009a020000c8
:1000c8009a0200009a0200009a0200009a020000b8
:1000d8009a0200009a0200009a0200009a020000a8
:1000e8009a0200009a0200009a0200009a02000098
:1000f8009a0200009a0200009a0200009a02000088
:100108009a0200009a0200009a0200009a02000077
:100118009a0200009a0200009a0200009a02000067
:100128009a0200009a0200009a0200009a02000057
:100138009a0200009a0200009a0200009a02000047
:100148009a0200009a0200009a0200009a02000037
:100158009a0200009a0200009a0200009a02000027
:100168009a0200009a0200009a0200009a02000017
:100178009a0200009a0200009a0200009a02000007
:100188009a0200009a0200009a0200009a020000f7
:100198009a0200009a0200009a0200009a020000e7
:1001a8009a0200009a0200009a0200009a020000d7
:1001b8009a0200009a0200009a0200009a020000c7
:1001c8009a0200009a0200009a0200009a020000b7
:1001d8009a0200009a0200009a0200009a020000a7
:1001e8009a0200009a0200009a0200009a02000097
:0801f8009a0200009a020000c7
:020000040000fa
:100208009a0200009a0200009a0200009a02000076
:100218009a0200009a0200009a0200009a02000066
:100228009a0200009a0200009a0200009a02000056
:100238009a0200009a0200009a02000006070000d5
:100248009a0200009a0200009a0200009a02000036
:100258009a0200009a0200009a0200009a02000026
:100268009a0200009a0200009a0200009a02000016
:100278009a0200009a0200009a0200009a02000006
:100288009a0200009a0200009a0200009a020000f6
:100298009a0200009a020000400700007807000058
:1002a8009a0200009a0200009a0200009a020000d6
:1002b8009a0200009a0200009a0200009a020000c6
:1002c8009a0200009a0200009a0200009a020000b6
:1002d8009a0200009a0200009a0200009a020000a6
:1002e8009a0200009a0200009a0200009a02000096
:1002f8009a0200009a0200009a0200009a02000086
:100308009a0200009a0200009a0200009a02000075
:100318009a0200009a0200009a0200009a02000065
:100328009a0200009a0200009a0200009a02000055
:100338009a0200009a0200009a0200009a02000045
:100348009a0200009a0200009a0200009a02000035
:100358009a0200009a0200009a0200009a02000025
:100368009a0200009a0200009a0200009a02000015
:100378009a0200009a0200009a0200009a02000005
:100388009a0200009a0200009a0200009a020000f5
:100398009a0200009a0200009a0200009a020000e5
:1003a8009a0200009a0200009a0200009a020000d5
:1003b8009a0200009a0200009a0200009a020000c5
:1003c8009a0200009a0200009a0200009a020000b5
:1003d8009a0200009a0200009a0200009a020000a5
:1003e8009a0200009a0200009a0200009a02000095
:0803f8009a0200009a020000c5
:020000040000fa
:100400002f8120000e7f24000e01880000000000d4
:10041000000020000000e000020032000001200087
:10042000200288000c000700407f2000010020000f
:1004300011000700000020000000e0000200320070
:10044000000002000000000084070200000000001d
:100450000040da000000fe004440a9000000200037
:100460000000e0000300320000002000a00188002e
:100470004440a80000000600910188008000780038
:100480000000eb0015003700e280400032a0b4000d
:100490009101ba00e280400032a0b4009102ba009b
:1004a000e280400032a0b4000002eb00472bde00e7
:1004b000f507b200602ce10004003a000059eb009f
:1004c0008301e900fdff3e00040037006128e100e0
:1004d000010032000082eb00040007001101ba00a5
:1004e0000200e000e8ff3a00000006003159ba00bf
:1004f0008301e9000c0032002159ba008301e900b0
:10050000080032000400e00003003a00e2804000ee
:1005100032a0b400f5ff370011d9ba008301e90019
:10052000faff3a008100e800e180400032a0b40008
:10053000000006000040da000000fe0084e0a90090
:10054000e7026000cc2add00f4ff280036058000b9
:10055000060262000502720034058800680060002f
:100560004300de00610060004700dd00f4f72f006b
:10057000a50480000502620000027200a404880045
:10058000000006000002eb003408880054088800d0
:100590006208880073088800800888001061a8003d
:1005a00000000600001020003202b6000000e90042
:1005b0004f00de000000060087c0a90087e0a90008
:1005c000e7026000c82add00f48f2f009605800046
:1005d000060262000502720094058800800278001d
:1005e0000507b200c82add00f4ff28009605800048
:1005f000060262000502720094058800e8026000ad
:10060000c32ade00e1826200ce2add00f4ff2b0067
:10061000b60480000602620005027200b40488007d
:100620000008b2004700de00610060004f00dd00fe
:10063000f4ff2700b504800005026200000272008a
:10064000b404880000000600901180006140600042
:1006500000000600c21188008011880091118800f6
:10066000000006008411800066026200e60f52005e
:1006700002003a00b011800000000600b0118000b6
:10068000f00fb200000006008411800066026200d4
:10069000e60f520001003200f00fb200a0118800f6
:0406a0000000060050
:020000040000fa
:1006a4000000fa00153a8000f40b20000483620075
:1006b400640420007505200027742000844b780012
:1006c400854b7800864b780034358000f401b30004
:1006d4003435880025368000f40f2e0084826200b1
:1006e400045020000502720024368800153a800068
:1006f400040420000403780005037300640420004c
:100704007505200027742000844b7800854b780001
:10071400864b78000080fa00000006000000fa0012
:10072400153a8000f40b2000048362006404200066
:100734007505200027742000844b7800854b7800d1
:10074400864b780025368000f40f2e000482620068
:10075400243688003535800004fe2f0004826200b0
:100764005400b30034358800153a80000404200096
:100774000403780005037300640420007505200059
:1007840027742000844b7800854b7800864b7800d2
:100794000080fa00000006000200fa00004f780012
:1007a40000000000951180000420200004826200f3
:1007b400e00f5200fbff3a009e4278000582fb00e6
:1007c40004007800afff0700048020001442780082
:1007d4001e4242000400780000e8b7000080fa00de
:1007e400000006000400fa00004f7800114798004a
:1007f40022479800aaff070000c0eb00e6ff0700ad
:1008040000c0eb00e4ff07000042eb0004007800a6
:1008140000e8b7001e407800dfff07001e4290008a
:1008240004c2e80004407800dbff07002e4090007b
:10083400d9ff07000080fa00000006000600fa0055
:1008440020479800210798000042eb00044f7800ed
:10085400080037009e4278000582fb00ae0290003b
:10086400048242001442780004407800caff070062
:100874001e4fe8002e4290009e42780084cf520022
:10088400f4ff39000080fa00000006000000fa00be
:10089400048020001442780004c2ea000440780076
:1008a400bdff0700000000003dff07000042780084
:1008b400e04f5200fcff3a0098ff07000080fa0066
:1008c400000006000200fa007000370064ff070011
:1008d4000002780004427800044f780084408000cd
:1008e400e50f420006003a001e427800e14f420044
:1008f40003003a00c4ff2f008440880063003700df
:1009040084408000e40f42000d003a001e4278004b
:10091400e14f42000a003a00d4ff2f0084408800cf
:100924000042eb000002fd0000e8b7000002fd00f9
:100934004580200014c0b30094429800530037004f
:1009440084408000e30f420006003a00e4ff2f00d9
:10095400844088001e42780045802000844a780044
:100964004a00370084408000e20f420011003a0040
:100974001e427800e54f52000e003e000082eb005c
:100984008440880044802000944278001e4278000d
:1009940004c242000002fd0000e8b7000002fd00ae
:1009a4001e42780004c2e900458020009442980069
:1009b4003600370084408000e10f420007003a000f
:1009c4000002eb00844088008e02780044802000fe
:1009d40015037800160298002c003700844080002c
:1009e400e00f5200160035004480200014429000ad
:1009f4008482fb0084408000848f52001000340005
:100a040085408000050378008480200004034300af
:100a14001e427800044b78000502e80084408800f8
:100a240005802000954278001e42780004c24200ee
:100a34000002fd0000e8b7000002fd0013003700cb
:100a440044802000144290008482fb008440800093
:100a5400848f52000b003a009e42780004802000ec
:100a64001442780004c26200e04f520005003a00cc
:100a74001400200014408800b4ff2f008440880034
:100a840002003700b4ff2f0084408800edfe070009
:100a940000427800e04f52008cff3a000080fa00d8
:100aa400000006000200fa00004f780012c0b300f4
:100ab40021c0b3001e4078004aff070073ff0700ff
:100ac4000080fa00000006000400fa00004f7800dd
:100ad400114798002247980022c0b30021c0b300f8
:100ae4001e4078003fff07001e4090002aff0700c9
:100af4002e40900028ff070064ff07000080fa00e2
:100b0400000006000600fa00004f78001147980024
:100b140022479800230798002e4290000442e800e0
:100b240032c0b300844078001e4078002dff0700d7
:100b34001e40900018ff0700ae0090002e40900069
:100b44003eff070051ff07000080fa000000060086
:100b54000600fa00004f78001147980022479800d9
:100b6400230798002e4290000442e80042c0b300dc
:100b7400844078001e4078001aff07001e40900051
:100b840005ff0700ae0090002e4090002bff0700e9
:100b94003eff07000080fa00000006000200fa0091
:100ba400004f780052c0b3008040eb001e40780034
:100bb4000cff070035ff07000080fa000000060064
:100bc4000200fa00004f780062c0b3008040eb00de
:100bd4001e40780003ff07002cff07000080fa0086
:100be400000006000200fa00004f78009e427800e0
:100bf4000582fb00cfa2de000603200007002000d0
:100c0400860f5200878f5a0036003e0004600100b0
:100c140032003700330037002e0037002d00370034
:100c24002c0037002b0037002c0037002d00370034
:100c34002a0037002b0037002a0037002500370030
:100c44002400370023003700240037002500370034
:100c5400200037001f0037001e0037001d0037003a
:100c64001e0037001f0037001c0037001d0037002e
:100c7400180037001700370016003700150037003a
:100c84001400370013003700140037001500370034
:100c9400120037001300370010003700110037002e
:100ca4000e0037000f0037000c0037000d0037002e
:100cb4000a0037000b003700060037000500370034
:100cc4000400370007003700020037000100370036
:100cd4000200370014c0b3000300370024c0b3007f
:100ce400010037000042eb00044078000080fa0065
:100cf400000006000400fa00881f7800004f780006
:100d040011479800120798000002eb001440880075
:100d14000e84e8001e409000b2ff070000427800f5
:100d240088017800044178009e4090001e407800bd
:100d340074ff07004f0478000080fa0000000600ea
:100d44000200fa00004f7800114798000002eb00ff
:100d5400144088001e409000a2ff07000042780063
:100d6400044178009e4090001e40780056ff070022
:100d74000080fa00000006000000fa00353a800006
:100d840004e02f00848262006409200005027200de
:100d9400343a8800243a80000460a1000470a10061
:100da400243a8800253a800004fe2f000482620061
:100db4005400b300243a88000080fa0000000600c2
:100dc4000000fa00c042a900cea2a80081e0a90058
:100dd400a2022000d155290000402c001cfe07006f
:100de400c0f42f00f3fd07001200200003002000d0
:100df400d0f82d00e2fd0700c0ff2f00cefd070054
:100e04000080fa0000000600801f7800849fbe0066
:100e1400861f78003400f80000002000a00188003c
:100e24000000fa00241680006402620004f0a700a7
:100e34000402ea000402e9004f22de0004427800c2
:100e44000482fb00610262004222dd00261680005b
:100e5400b5ff2f0085026300050272002416880086
:100e640084e0a9000080fa003400f9004f03780000
:100e74004f02be004f007800004006003600f80024
:100e8400809fbe00829fbe00849fbe00869fbe00de
:100e94000000fa00241680004222de006142620053
:100ea4000404a200614262000482fb006102620049
:100eb4004222dd0026168000b5ff2f008502630064
:100ec40005027200241688007efe070087c0a90070
:100ed4000080fa004f03be004f02be004f01be0067
:100ee4004f00be003600f90000400600801f780065
:100ef4000000fa0087e0a9000080fa004f007800a3
:100f0400004006000000fa009bff0700acff07004a
:100f14000002eb00144088002202200041c0b3000c
:100f2400e0cfb30073ff07000b00070000402b0065
:100f3400414c20001d000700c22b2000e1c1b3007a
:100f4400e0cfb3006bff070000402b00414c2000b2
:100f540016000700f4ff37000000fa00f23f2000fb
:100f640021c2b300e0cfb30062ff070000a0260057
:100f7400810120000d0007004201200001c2b300de
:100f8400e0cfb3005bff0700c2122000e1c1b30051
:100f9400e0cfb30057ff070000902000d1032000ea
:0c0fa400020007000080fa0000000600b8
:020000040000fa
:100fb000f03fb1000180b10006003500ee030900ea
:100fc00000000000403fb1000180b100fbff3d0088
:100fd0001000b000203fb000020035000080090082
:080fe000000000000000060003
:020000040000fa
:100fe80000080000100000000000000010080000c9
:100ff8000200000002000000fbff000000000000eb
:020000040000fa
:0200000401f009
:04000c0079ff000078
:020000040000fa
:0200000401f009
:040010009bff000052
:020000040000fa
:0200000401f009
:040014007fff00006a
:020000040000fa
:0200000401f009
:04001c00dfff000002
:00000001FF
